{
  "abi": [
    {
      "inputs": [
        {
          "internalType": "address",
          "name": "_entryPoint",
          "type": "address"
        }
      ],
      "stateMutability": "nonpayable",
      "type": "constructor"
    },
    {
      "inputs": [
        {
          "internalType": "bytes",
          "name": "publicKey",
          "type": "bytes"
        }
      ],
      "name": "create",
      "outputs": [
        {
          "internalType": "address",
          "name": "",
          "type": "address"
        }
      ],
      "stateMutability": "nonpayable",
      "type": "function"
    },
    {
      "inputs": [],
      "name": "entryPoint",
      "outputs": [
        {
          "internalType": "address",
          "name": "",
          "type": "address"
        }
      ],
      "stateMutability": "view",
      "type": "function"
    },
    {
      "inputs": [],
      "name": "implementation",
      "outputs": [
        {
          "internalType": "address",
          "name": "",
          "type": "address"
        }
      ],
      "stateMutability": "view",
      "type": "function"
    },
    {
      "inputs": [
        {
          "internalType": "bytes",
          "name": "publicKey",
          "type": "bytes"
        }
      ],
      "name": "predict",
      "outputs": [
        {
          "internalType": "address",
          "name": "",
          "type": "address"
        }
      ],
      "stateMutability": "view",
      "type": "function"
    },
    {
      "inputs": [],
      "name": "verifier",
      "outputs": [
        {
          "internalType": "address",
          "name": "",
          "type": "address"
        }
      ],
      "stateMutability": "view",
      "type": "function"
    }
  ],
  "bytecode": {
    "object": "0x608060405234801561001057600080fd5b506040516117be3803806117be83398101604081905261002f9161011f565b600180546001600160a01b0319166001600160a01b03831617905560405161005690610105565b604051809103906000f080158015610072573d6000803e3d6000fd5b50600080546001600160a01b0319166001600160a01b03929092169190911790554661a455036100b557600280546001600160a01b0319166101001790556100ff565b6040516100c190610112565b604051809103906000f0801580156100dd573d6000803e3d6000fd5b50600280546001600160a01b0319166001600160a01b03929092169190911790555b5061014f565b610ba18061066783390190565b6105b68061120883390190565b60006020828403121561013157600080fd5b81516001600160a01b038116811461014857600080fd5b9392505050565b6105098061015e6000396000f3fe608060405234801561001057600080fd5b50600436106100575760003560e01c80632b7ac3f31461005c5780635c60da1b1461008b578063a64139fa1461009e578063b0d691fe146100b1578063cf5ba53f146100c4575b600080fd5b60025461006f906001600160a01b031681565b6040516001600160a01b03909116815260200160405180910390f35b60005461006f906001600160a01b031681565b61006f6100ac3660046103aa565b6100d7565b60015461006f906001600160a01b031681565b61006f6100d23660046103aa565b61010f565b60008054604051610106916001600160a01b0316906100f9908690869061041c565b604051809103902061023f565b90505b92915050565b600080546040518291610135916001600160a01b03909116906100f9908790879061041c565b90506101646040518060400160405280600b81526020016a6163636f756e742070726560a81b8152508261029f565b806001600160a01b03163b600003610216576000546040516101a4916001600160a01b031690610197908790879061041c565b60405180910390206102e8565b600154600254604051633305c47760e11b81529293506001600160a01b038085169363660b88ee936101e3938a938a939281169291169060040161042c565b600060405180830381600087803b1580156101fd57600080fd5b505af1158015610211573d6000803e3d6000fd5b505050505b610106604051806040016040528060078152602001661858d8dbdd5b9d60ca1b8152508261029f565b6040513060388201526f5af43d82803e903d91602b57fd5bf3ff602482015260148101839052733d602d80600a3d3981f3363d3d373d3d3d363d738152605881018290526037600c82012060788201526055604390910120600090610106565b6102e482826040516024016102b5929190610473565b60408051601f198184030181529190526020810180516001600160e01b031663319af33360e01b179052610389565b5050565b6000763d602d80600a3d3981f3363d3d373d3d3d363d730000008360601b60e81c176000526e5af43d82803e903d91602b57fd5bf38360781b1760205281603760096000f590506001600160a01b0381166101095760405162461bcd60e51b815260206004820152601760248201527f455243313136373a2063726561746532206661696c6564000000000000000000604482015260640160405180910390fd5b80516a636f6e736f6c652e6c6f67602083016000808483855afa5050505050565b600080602083850312156103bd57600080fd5b823567ffffffffffffffff808211156103d557600080fd5b818501915085601f8301126103e957600080fd5b8135818111156103f857600080fd5b86602082850101111561040a57600080fd5b60209290920196919550909350505050565b8183823760009101908152919050565b6060815283606082015283856080830137600060808583018101919091526001600160a01b039384166020830152919092166040830152601f909201601f19160101919050565b604081526000835180604084015260005b818110156104a15760208187018101516060868401015201610484565b50600060608285018101919091526001600160a01b03949094166020840152601f01601f19169091019091019291505056fea2646970667358221220fdb0c13bd33bdbd2492b5e425ae2c04539342d9637412bd84334db19bb5e91ba64736f6c63430008110033608060405234801561001057600080fd5b5061001961001e565b6100de565b600054610100900460ff161561008a5760405162461bcd60e51b815260206004820152602760248201527f496e697469616c697a61626c653a20636f6e747261637420697320696e697469604482015266616c697a696e6760c81b606482015260840160405180910390fd5b60005460ff90811610156100dc576000805460ff191660ff9081179091556040519081527f7f26b83ff96e1f2b6a682f133852f6798a09c465da95921460cefb38474024989060200160405180910390a15b565b610ab4806100ed6000396000f3fe608060405234801561001057600080fd5b50600436106100625760003560e01c80630825d1fc1461006757806363ffab311461008d578063660b88ee146100a2578063affed0e0146100b7578063b0d691fe146100bf578063b61d27f6146100da575b600080fd5b61007a610075366004610625565b6100ed565b6040519081526020015b60405180910390f35b610095610134565b60405161008491906106ae565b6100b56100b036600461072a565b6101c2565b005b60025461007a565b6003546040516001600160a01b039091168152602001610084565b6100b56100e836600461078f565b610312565b60006100f76103b3565b61010285858561040f565b905061011160408601866107e9565b905060000361012357610123856104ea565b61012c8261054c565b949350505050565b6001805461014190610830565b80601f016020809104026020016040519081016040528092919081815260200182805461016d90610830565b80156101ba5780601f1061018f576101008083540402835291602001916101ba565b820191906000526020600020905b81548152906001019060200180831161019d57829003601f168201915b505050505081565b600054610100900460ff16158080156101e25750600054600160ff909116105b806101fc5750303b1580156101fc575060005460ff166001145b6102645760405162461bcd60e51b815260206004820152602e60248201527f496e697469616c697a61626c653a20636f6e747261637420697320616c72656160448201526d191e481a5b9a5d1a585b1a5e995960921b60648201526084015b60405180910390fd5b6000805460ff191660011790558015610287576000805461ff0019166101001790555b60016102948587836108cf565b50600380546001600160a01b038086166001600160a01b0319928316179092556004805492851692909116919091179055801561030b576000805461ff0019169055604051600181527f7f26b83ff96e1f2b6a682f133852f6798a09c465da95921460cefb38474024989060200160405180910390a15b5050505050565b6003546001600160a01b0316331461036c5760405162461bcd60e51b815260206004820152601b60248201527f6163636f756e743a20696e76616c696420456e747279506f696e740000000000604482015260640161025b565b6103ad848484848080601f01602080910402602001604051908101604052809392919081815260200183838082843760009201919091525061059992505050565b50505050565b6003546001600160a01b0316331461040d5760405162461bcd60e51b815260206004820152601c60248201527f6163636f756e743a206e6f742066726f6d20456e747279506f696e7400000000604482015260640161025b565b565b600454600090819081906001600160a01b03166104306101408801886107e9565b600188604051602001610446949392919061098f565b60408051601f198184030181529082905261046091610a19565b6000604051808303816000865af19150503d806000811461049d576040519150601f19603f3d011682016040523d82523d6000602084013e6104a2565b606091505b50915091506000818060200190518101906104bd9190610a35565b90508215806104ca575080155b156104db57600193505050506104e3565b600093505050505b9392505050565b6002805460208301359160006104ff83610a57565b91905055146105495760405162461bcd60e51b81526020600482015260166024820152756163636f756e743a20696e76616c6964206e6f6e636560501b604482015260640161025b565b50565b801561054957604051600090339060001990849084818181858888f193505050503d806000811461030b576040519150601f19603f3d011682016040523d82523d6000602084013e61030b565b600080846001600160a01b031684846040516105b59190610a19565b60006040518083038185875af1925050503d80600081146105f2576040519150601f19603f3d011682016040523d82523d6000602084013e6105f7565b606091505b50915091508161030b57805160208201fd5b80356001600160a01b038116811461062057600080fd5b919050565b6000806000806080858703121561063b57600080fd5b843567ffffffffffffffff81111561065257600080fd5b8501610160818803121561066557600080fd5b93506020850135925061067a60408601610609565b9396929550929360600135925050565b60005b838110156106a557818101518382015260200161068d565b50506000910152565b60208152600082518060208401526106cd81604085016020870161068a565b601f01601f19169190910160400192915050565b60008083601f8401126106f357600080fd5b50813567ffffffffffffffff81111561070b57600080fd5b60208301915083602082850101111561072357600080fd5b9250929050565b6000806000806060858703121561074057600080fd5b843567ffffffffffffffff81111561075757600080fd5b610763878288016106e1565b9095509350610776905060208601610609565b915061078460408601610609565b905092959194509250565b600080600080606085870312156107a557600080fd5b6107ae85610609565b935060208501359250604085013567ffffffffffffffff8111156107d157600080fd5b6107dd878288016106e1565b95989497509550505050565b6000808335601e1984360301811261080057600080fd5b83018035915067ffffffffffffffff82111561081b57600080fd5b60200191503681900382131561072357600080fd5b600181811c9082168061084457607f821691505b60208210810361086457634e487b7160e01b600052602260045260246000fd5b50919050565b634e487b7160e01b600052604160045260246000fd5b601f8211156108ca57600081815260208120601f850160051c810160208610156108a75750805b601f850160051c820191505b818110156108c6578281556001016108b3565b5050505b505050565b67ffffffffffffffff8311156108e7576108e761086a565b6108fb836108f58354610830565b83610880565b6000601f84116001811461092f57600085156109175750838201355b600019600387901b1c1916600186901b17835561030b565b600083815260209020601f19861690835b828110156109605786850135825560209485019460019092019101610940565b508682101561097d5760001960f88860031b161c19848701351681555b505060018560011b0183555050505050565b83858237600084820160008152600085546109a981610830565b600182811680156109c157600181146109d657610a05565b60ff1984168652821515830286019450610a05565b8960005260208060002060005b858110156109fc578154898201529084019082016109e3565b50505082860194505b505050948152602001979650505050505050565b60008251610a2b81846020870161068a565b9190910192915050565b600060208284031215610a4757600080fd5b815180151581146104e357600080fd5b600060018201610a7757634e487b7160e01b600052601160045260246000fd5b506001019056fea2646970667358221220a8104db7ba005277e58f91eb3c05fd239dc2442c56eaf098a5dacb86637a8b1c64736f6c63430008110033608060405234801561001057600080fd5b50610596806100206000396000f3fe608060405234801561001057600080fd5b5060008080808061002136826104e4565b94509450945094509450600061003a8484888886610046565b90508060005260206000f35b60006000805160206105418339815191528410158061007357506000805160206105418339815191528310155b15610080575060006100e2565b600061009a846000805160206105418339815191526100eb565b905060006000805160206105418339815191528285099050600060008051602061054183398151915283880990506000806100d78b8b868661010b565b508914955050505050505b95945050505050565b6000610102836100fc60028561051f565b8461016c565b90505b92915050565b6000806000806000806000806101208a6101cf565b919750955093506101328c8c8b61022c565b9194509250905061014786868686868661028b565b919750955093506101598686866103b1565b9750975050505050505094509492505050565b60008184111561017c5781840693505b60405160208152602080820152602060408201528460608201528360808201528260a082015260208160c083600060056105dcf18080156101c057825193506101c5565b600080fd5b5050509392505050565b600080600061021f7f6b17d1f2e12c4247f8bce6e563a440f277037d812deb33a0f4a13945d898c2967f4fe342e2fe1a7f9b8ee7eb4a7c0f9e162bce33576b315ececbb6406837bf51f58661022c565b9250925092509193909250565b6000808060018180805b871561027b578760011660010361025d576102558a8a8686868661028b565b919450925090505b6102688a8a8661042f565b919b50995060019890981c979350610236565b9199909850909650945050505050565b6000806000866000036102a55750849150839050826103a5565b836000036102ba5750879150869050856103a5565b600160601b63ffffffff60c01b0319808889098186870982818d0983838b0984858a85098e0985868e87098c09868b8f08848410156102f857928701925b84840393508784600209888182099050888186098484101561031957928901925b898585036002099350898485099c50898288099650898a8860020982089150818d1015610345579b89019b5b818d039c5089818b87600209099450508b86101561036257948801945b888c870384099a50838b101561037757998801995b838b039a50888789089750888283099050878110156103935788015b88858983030999505050505050505050505b96509650969350505050565b600080826000036103c757506000905080610427565b60006103e184600160601b63ffffffff60c01b03196100eb565b90506000600160601b63ffffffff60c01b03198283099050600160601b63ffffffff60c01b03198188099350600160601b63ffffffff60c01b0319808383098709925050505b935093915050565b6000806000600160601b63ffffffff60c01b03198085860981828283097fffffffff00000001000000000000000000000000fffffffffffffffffffffffc099050818788098283828b0960040983848384096008099150838385868d8e09600309089250838160020984848509818110156104a75785015b039650868110156104b55783015b838782038409955050808510156104cb57938201935b9093039250808086880960020991505093509350939050565b600080600080600060a086880312156104fc57600080fd5b505083359560208501359550604085013594606081013594506080013592509050565b8181038181111561010557634e487b7160e01b600052601160045260246000fdfeffffffff00000000ffffffffffffffffbce6faada7179e84f3b9cac2fc632551a26469706673582212207a743e0f0d2e56d76ac55ff9e100477c36c4097a364d2298108a978f7f21893964736f6c63430008110033",
    "linkReferences": {}
  },
  "methodIdentifiers": {
    "create(bytes)": "cf5ba53f",
    "entryPoint()": "b0d691fe",
    "implementation()": "5c60da1b",
    "predict(bytes)": "a64139fa",
    "verifier()": "2b7ac3f3"
  },
  "id": 32
}