{
  "abi": [
    {
      "inputs": [],
      "stateMutability": "nonpayable",
      "type": "constructor"
    },
    {
      "anonymous": false,
      "inputs": [
        {
          "indexed": false,
          "internalType": "uint8",
          "name": "version",
          "type": "uint8"
        }
      ],
      "name": "Initialized",
      "type": "event"
    },
    {
      "inputs": [],
      "name": "entryPoint",
      "outputs": [
        {
          "internalType": "contract IEntryPoint",
          "name": "",
          "type": "address"
        }
      ],
      "stateMutability": "view",
      "type": "function"
    },
    {
      "inputs": [
        {
          "internalType": "address",
          "name": "target",
          "type": "address"
        },
        {
          "internalType": "uint256",
          "name": "value",
          "type": "uint256"
        },
        {
          "internalType": "bytes",
          "name": "data",
          "type": "bytes"
        }
      ],
      "name": "execute",
      "outputs": [],
      "stateMutability": "nonpayable",
      "type": "function"
    },
    {
      "inputs": [
        {
          "internalType": "bytes",
          "name": "_publicKey",
          "type": "bytes"
        },
        {
          "internalType": "address",
          "name": "entryPoint_",
          "type": "address"
        },
        {
          "internalType": "address",
          "name": "_verifier",
          "type": "address"
        }
      ],
      "name": "initialize",
      "outputs": [],
      "stateMutability": "nonpayable",
      "type": "function"
    },
    {
      "inputs": [
        {
          "components": [
            {
              "internalType": "address",
              "name": "sender",
              "type": "address"
            },
            {
              "internalType": "uint256",
              "name": "nonce",
              "type": "uint256"
            },
            {
              "internalType": "bytes",
              "name": "initCode",
              "type": "bytes"
            },
            {
              "internalType": "bytes",
              "name": "callData",
              "type": "bytes"
            },
            {
              "internalType": "uint256",
              "name": "callGasLimit",
              "type": "uint256"
            },
            {
              "internalType": "uint256",
              "name": "verificationGasLimit",
              "type": "uint256"
            },
            {
              "internalType": "uint256",
              "name": "preVerificationGas",
              "type": "uint256"
            },
            {
              "internalType": "uint256",
              "name": "maxFeePerGas",
              "type": "uint256"
            },
            {
              "internalType": "uint256",
              "name": "maxPriorityFeePerGas",
              "type": "uint256"
            },
            {
              "internalType": "bytes",
              "name": "paymasterAndData",
              "type": "bytes"
            },
            {
              "internalType": "bytes",
              "name": "signature",
              "type": "bytes"
            }
          ],
          "internalType": "struct UserOperation",
          "name": "userOp",
          "type": "tuple"
        },
        {
          "internalType": "bytes32",
          "name": "userOpHash",
          "type": "bytes32"
        }
      ],
      "name": "isSigValid",
      "outputs": [
        {
          "internalType": "uint256",
          "name": "validationData",
          "type": "uint256"
        },
        {
          "internalType": "bytes",
          "name": "callData",
          "type": "bytes"
        },
        {
          "internalType": "bool",
          "name": "success",
          "type": "bool"
        },
        {
          "internalType": "bool",
          "name": "valid",
          "type": "bool"
        }
      ],
      "stateMutability": "nonpayable",
      "type": "function"
    },
    {
      "inputs": [],
      "name": "nonce",
      "outputs": [
        {
          "internalType": "uint256",
          "name": "",
          "type": "uint256"
        }
      ],
      "stateMutability": "view",
      "type": "function"
    },
    {
      "inputs": [],
      "name": "publicKey",
      "outputs": [
        {
          "internalType": "bytes",
          "name": "",
          "type": "bytes"
        }
      ],
      "stateMutability": "view",
      "type": "function"
    },
    {
      "inputs": [
        {
          "components": [
            {
              "internalType": "address",
              "name": "sender",
              "type": "address"
            },
            {
              "internalType": "uint256",
              "name": "nonce",
              "type": "uint256"
            },
            {
              "internalType": "bytes",
              "name": "initCode",
              "type": "bytes"
            },
            {
              "internalType": "bytes",
              "name": "callData",
              "type": "bytes"
            },
            {
              "internalType": "uint256",
              "name": "callGasLimit",
              "type": "uint256"
            },
            {
              "internalType": "uint256",
              "name": "verificationGasLimit",
              "type": "uint256"
            },
            {
              "internalType": "uint256",
              "name": "preVerificationGas",
              "type": "uint256"
            },
            {
              "internalType": "uint256",
              "name": "maxFeePerGas",
              "type": "uint256"
            },
            {
              "internalType": "uint256",
              "name": "maxPriorityFeePerGas",
              "type": "uint256"
            },
            {
              "internalType": "bytes",
              "name": "paymasterAndData",
              "type": "bytes"
            },
            {
              "internalType": "bytes",
              "name": "signature",
              "type": "bytes"
            }
          ],
          "internalType": "struct UserOperation",
          "name": "userOp",
          "type": "tuple"
        },
        {
          "internalType": "bytes32",
          "name": "userOpHash",
          "type": "bytes32"
        },
        {
          "internalType": "uint256",
          "name": "missingAccountFunds",
          "type": "uint256"
        }
      ],
      "name": "validateUserOp",
      "outputs": [
        {
          "internalType": "uint256",
          "name": "validationData",
          "type": "uint256"
        }
      ],
      "stateMutability": "nonpayable",
      "type": "function"
    }
  ],
  "bytecode": {
    "object": "0x608060405234801561001057600080fd5b5061001961001e565b6100de565b600054610100900460ff161561008a5760405162461bcd60e51b815260206004820152602760248201527f496e697469616c697a61626c653a20636f6e747261637420697320696e697469604482015266616c697a696e6760c81b606482015260840160405180910390fd5b60005460ff90811610156100dc576000805460ff191660ff9081179091556040519081527f7f26b83ff96e1f2b6a682f133852f6798a09c465da95921460cefb38474024989060200160405180910390a15b565b610c33806100ed6000396000f3fe608060405234801561001057600080fd5b506004361061007d5760003560e01c8063660b88ee1161005b578063660b88ee146100e4578063affed0e0146100f9578063b0d691fe14610101578063b61d27f61461011c57600080fd5b8063137b5e82146100825780633a871cdd146100ae57806363ffab31146100cf575b600080fd5b610095610090366004610723565b61012f565b6040516100a594939291906107b8565b60405180910390f35b6100c16100bc3660046107e9565b610212565b6040519081526020016100a5565b6100d7610257565b6040516100a59190610837565b6100f76100f23660046108af565b6102e5565b005b6002546100c1565b6003546040516001600160a01b0390911681526020016100a5565b6100f761012a366004610914565b610435565b60006060818061014361014087018761096e565b60018760405160200161015994939291906109e9565b60408051601f198184030181529082905260045490945060009182916001600160a01b03169061018a908790610a73565b600060405180830381855afa9150503d80600081146101c5576040519150601f19603f3d011682016040523d82523d6000602084013e6101ca565b606091505b50915091506000818060200190518101906101e59190610a8f565b9050806101fd57600196509193509091506102099050565b60009650919350909150505b92959194509250565b600061021c6104d6565b6102268484610532565b9050610235604085018561096e565b905060000361024757610247846105eb565b6102508261064d565b9392505050565b60018054610264906109b5565b80601f0160208091040260200160405190810160405280929190818152602001828054610290906109b5565b80156102dd5780601f106102b2576101008083540402835291602001916102dd565b820191906000526020600020905b8154815290600101906020018083116102c057829003601f168201915b505050505081565b600054610100900460ff16158080156103055750600054600160ff909116105b8061031f5750303b15801561031f575060005460ff166001145b6103875760405162461bcd60e51b815260206004820152602e60248201527f496e697469616c697a61626c653a20636f6e747261637420697320616c72656160448201526d191e481a5b9a5d1a585b1a5e995960921b60648201526084015b60405180910390fd5b6000805460ff1916600117905580156103aa576000805461ff0019166101001790555b60016103b7858783610b16565b50600380546001600160a01b038086166001600160a01b0319928316179092556004805492851692909116919091179055801561042e576000805461ff0019169055604051600181527f7f26b83ff96e1f2b6a682f133852f6798a09c465da95921460cefb38474024989060200160405180910390a15b5050505050565b6003546001600160a01b0316331461048f5760405162461bcd60e51b815260206004820152601b60248201527f6163636f756e743a20696e76616c696420456e747279506f696e740000000000604482015260640161037e565b6104d0848484848080601f01602080910402602001604051908101604052809392919081815260200183838082843760009201919091525061069a92505050565b50505050565b6003546001600160a01b031633146105305760405162461bcd60e51b815260206004820152601c60248201527f6163636f756e743a206e6f742066726f6d20456e747279506f696e7400000000604482015260640161037e565b565b600454600090819081906001600160a01b031661055361014087018761096e565b60018760405160200161056994939291906109e9565b60408051601f198184030181529082905261058391610a73565b600060405180830381855afa9150503d80600081146105be576040519150601f19603f3d011682016040523d82523d6000602084013e6105c3565b606091505b50915091506000818060200190518101906105de9190610a8f565b5060009695505050505050565b60028054602083013591600061060083610bd6565b919050551461064a5760405162461bcd60e51b81526020600482015260166024820152756163636f756e743a20696e76616c6964206e6f6e636560501b604482015260640161037e565b50565b801561064a57604051600090339060001990849084818181858888f193505050503d806000811461042e576040519150601f19603f3d011682016040523d82523d6000602084013e61042e565b600080846001600160a01b031684846040516106b69190610a73565b60006040518083038185875af1925050503d80600081146106f3576040519150601f19603f3d011682016040523d82523d6000602084013e6106f8565b606091505b50915091508161042e57805160208201fd5b6000610160828403121561071d57600080fd5b50919050565b6000806040838503121561073657600080fd5b823567ffffffffffffffff81111561074d57600080fd5b6107598582860161070a565b95602094909401359450505050565b60005b8381101561078357818101518382015260200161076b565b50506000910152565b600081518084526107a4816020860160208601610768565b601f01601f19169290920160200192915050565b8481526080602082015260006107d1608083018661078c565b93151560408301525090151560609091015292915050565b6000806000606084860312156107fe57600080fd5b833567ffffffffffffffff81111561081557600080fd5b6108218682870161070a565b9660208601359650604090950135949350505050565b602081526000610250602083018461078c565b60008083601f84011261085c57600080fd5b50813567ffffffffffffffff81111561087457600080fd5b60208301915083602082850101111561088c57600080fd5b9250929050565b80356001600160a01b03811681146108aa57600080fd5b919050565b600080600080606085870312156108c557600080fd5b843567ffffffffffffffff8111156108dc57600080fd5b6108e88782880161084a565b90955093506108fb905060208601610893565b915061090960408601610893565b905092959194509250565b6000806000806060858703121561092a57600080fd5b61093385610893565b935060208501359250604085013567ffffffffffffffff81111561095657600080fd5b6109628782880161084a565b95989497509550505050565b6000808335601e1984360301811261098557600080fd5b83018035915067ffffffffffffffff8211156109a057600080fd5b60200191503681900382131561088c57600080fd5b600181811c908216806109c957607f821691505b60208210810361071d57634e487b7160e01b600052602260045260246000fd5b8385823760008482016000815260008554610a03816109b5565b60018281168015610a1b5760018114610a3057610a5f565b60ff1984168652821515830286019450610a5f565b8960005260208060002060005b85811015610a5657815489820152908401908201610a3d565b50505082860194505b505050948152602001979650505050505050565b60008251610a85818460208701610768565b9190910192915050565b600060208284031215610aa157600080fd5b8151801515811461025057600080fd5b634e487b7160e01b600052604160045260246000fd5b601f821115610b1157600081815260208120601f850160051c81016020861015610aee5750805b601f850160051c820191505b81811015610b0d57828155600101610afa565b5050505b505050565b67ffffffffffffffff831115610b2e57610b2e610ab1565b610b4283610b3c83546109b5565b83610ac7565b6000601f841160018114610b765760008515610b5e5750838201355b600019600387901b1c1916600186901b17835561042e565b600083815260209020601f19861690835b82811015610ba75786850135825560209485019460019092019101610b87565b5086821015610bc45760001960f88860031b161c19848701351681555b505060018560011b0183555050505050565b600060018201610bf657634e487b7160e01b600052601160045260246000fd5b506001019056fea264697066735822122097903e97ee4278561d37906c6dd4c9cb78f1579eb203f61e0c4d0a3b0a3e797764736f6c63430008110033",
    "linkReferences": {}
  },
  "methodIdentifiers": {
    "entryPoint()": "b0d691fe",
    "execute(address,uint256,bytes)": "b61d27f6",
    "initialize(bytes,address,address)": "660b88ee",
    "isSigValid((address,uint256,bytes,bytes,uint256,uint256,uint256,uint256,uint256,bytes,bytes),bytes32)": "137b5e82",
    "nonce()": "affed0e0",
    "publicKey()": "63ffab31",
    "validateUserOp((address,uint256,bytes,bytes,uint256,uint256,uint256,uint256,uint256,bytes,bytes),bytes32,uint256)": "3a871cdd"
  },
  "id": 34
}