{
  "abi": [
    {
      "inputs": [],
      "stateMutability": "nonpayable",
      "type": "constructor"
    },
    {
      "anonymous": false,
      "inputs": [
        {
          "indexed": false,
          "internalType": "uint8",
          "name": "version",
          "type": "uint8"
        }
      ],
      "name": "Initialized",
      "type": "event"
    },
    {
      "inputs": [],
      "name": "entryPoint",
      "outputs": [
        {
          "internalType": "contract IEntryPoint",
          "name": "",
          "type": "address"
        }
      ],
      "stateMutability": "view",
      "type": "function"
    },
    {
      "inputs": [
        {
          "internalType": "address",
          "name": "target",
          "type": "address"
        },
        {
          "internalType": "uint256",
          "name": "value",
          "type": "uint256"
        },
        {
          "internalType": "bytes",
          "name": "data",
          "type": "bytes"
        }
      ],
      "name": "execute",
      "outputs": [],
      "stateMutability": "nonpayable",
      "type": "function"
    },
    {
      "inputs": [
        {
          "internalType": "bytes",
          "name": "_publicKey",
          "type": "bytes"
        },
        {
          "internalType": "address",
          "name": "entryPoint_",
          "type": "address"
        },
        {
          "internalType": "address",
          "name": "_verifier",
          "type": "address"
        }
      ],
      "name": "initialize",
      "outputs": [],
      "stateMutability": "nonpayable",
      "type": "function"
    },
    {
      "inputs": [],
      "name": "nonce",
      "outputs": [
        {
          "internalType": "uint256",
          "name": "",
          "type": "uint256"
        }
      ],
      "stateMutability": "view",
      "type": "function"
    },
    {
      "inputs": [],
      "name": "publicKey",
      "outputs": [
        {
          "internalType": "bytes",
          "name": "",
          "type": "bytes"
        }
      ],
      "stateMutability": "view",
      "type": "function"
    },
    {
      "inputs": [
        {
          "components": [
            {
              "internalType": "address",
              "name": "sender",
              "type": "address"
            },
            {
              "internalType": "uint256",
              "name": "nonce",
              "type": "uint256"
            },
            {
              "internalType": "bytes",
              "name": "initCode",
              "type": "bytes"
            },
            {
              "internalType": "bytes",
              "name": "callData",
              "type": "bytes"
            },
            {
              "internalType": "uint256",
              "name": "callGasLimit",
              "type": "uint256"
            },
            {
              "internalType": "uint256",
              "name": "verificationGasLimit",
              "type": "uint256"
            },
            {
              "internalType": "uint256",
              "name": "preVerificationGas",
              "type": "uint256"
            },
            {
              "internalType": "uint256",
              "name": "maxFeePerGas",
              "type": "uint256"
            },
            {
              "internalType": "uint256",
              "name": "maxPriorityFeePerGas",
              "type": "uint256"
            },
            {
              "internalType": "bytes",
              "name": "paymasterAndData",
              "type": "bytes"
            },
            {
              "internalType": "bytes",
              "name": "signature",
              "type": "bytes"
            }
          ],
          "internalType": "struct UserOperation",
          "name": "userOp",
          "type": "tuple"
        },
        {
          "internalType": "bytes32",
          "name": "userOpHash",
          "type": "bytes32"
        },
        {
          "internalType": "address",
          "name": "aggregator",
          "type": "address"
        },
        {
          "internalType": "uint256",
          "name": "missingAccountFunds",
          "type": "uint256"
        }
      ],
      "name": "validateUserOp",
      "outputs": [
        {
          "internalType": "uint256",
          "name": "deadline",
          "type": "uint256"
        }
      ],
      "stateMutability": "nonpayable",
      "type": "function"
    }
  ],
  "bytecode": {
    "object": "0x608060405234801561001057600080fd5b5061001961001e565b6100de565b600054610100900460ff161561008a5760405162461bcd60e51b815260206004820152602760248201527f496e697469616c697a61626c653a20636f6e747261637420697320696e697469604482015266616c697a696e6760c81b606482015260840160405180910390fd5b60005460ff90811610156100dc576000805460ff191660ff9081179091556040519081527f7f26b83ff96e1f2b6a682f133852f6798a09c465da95921460cefb38474024989060200160405180910390a15b565b610ab4806100ed6000396000f3fe608060405234801561001057600080fd5b50600436106100625760003560e01c80630825d1fc1461006757806363ffab311461008d578063660b88ee146100a2578063affed0e0146100b7578063b0d691fe146100bf578063b61d27f6146100da575b600080fd5b61007a610075366004610625565b6100ed565b6040519081526020015b60405180910390f35b610095610134565b60405161008491906106ae565b6100b56100b036600461072a565b6101c2565b005b60025461007a565b6003546040516001600160a01b039091168152602001610084565b6100b56100e836600461078f565b610312565b60006100f76103b3565b61010285858561040f565b905061011160408601866107e9565b905060000361012357610123856104ea565b61012c8261054c565b949350505050565b6001805461014190610830565b80601f016020809104026020016040519081016040528092919081815260200182805461016d90610830565b80156101ba5780601f1061018f576101008083540402835291602001916101ba565b820191906000526020600020905b81548152906001019060200180831161019d57829003601f168201915b505050505081565b600054610100900460ff16158080156101e25750600054600160ff909116105b806101fc5750303b1580156101fc575060005460ff166001145b6102645760405162461bcd60e51b815260206004820152602e60248201527f496e697469616c697a61626c653a20636f6e747261637420697320616c72656160448201526d191e481a5b9a5d1a585b1a5e995960921b60648201526084015b60405180910390fd5b6000805460ff191660011790558015610287576000805461ff0019166101001790555b60016102948587836108cf565b50600380546001600160a01b038086166001600160a01b0319928316179092556004805492851692909116919091179055801561030b576000805461ff0019169055604051600181527f7f26b83ff96e1f2b6a682f133852f6798a09c465da95921460cefb38474024989060200160405180910390a15b5050505050565b6003546001600160a01b0316331461036c5760405162461bcd60e51b815260206004820152601b60248201527f6163636f756e743a20696e76616c696420456e747279506f696e740000000000604482015260640161025b565b6103ad848484848080601f01602080910402602001604051908101604052809392919081815260200183838082843760009201919091525061059992505050565b50505050565b6003546001600160a01b0316331461040d5760405162461bcd60e51b815260206004820152601c60248201527f6163636f756e743a206e6f742066726f6d20456e747279506f696e7400000000604482015260640161025b565b565b600454600090819081906001600160a01b03166104306101408801886107e9565b600188604051602001610446949392919061098f565b60408051601f198184030181529082905261046091610a19565b6000604051808303816000865af19150503d806000811461049d576040519150601f19603f3d011682016040523d82523d6000602084013e6104a2565b606091505b50915091506000818060200190518101906104bd9190610a35565b90508215806104ca575080155b156104db57600193505050506104e3565b600093505050505b9392505050565b6002805460208301359160006104ff83610a57565b91905055146105495760405162461bcd60e51b81526020600482015260166024820152756163636f756e743a20696e76616c6964206e6f6e636560501b604482015260640161025b565b50565b801561054957604051600090339060001990849084818181858888f193505050503d806000811461030b576040519150601f19603f3d011682016040523d82523d6000602084013e61030b565b600080846001600160a01b031684846040516105b59190610a19565b60006040518083038185875af1925050503d80600081146105f2576040519150601f19603f3d011682016040523d82523d6000602084013e6105f7565b606091505b50915091508161030b57805160208201fd5b80356001600160a01b038116811461062057600080fd5b919050565b6000806000806080858703121561063b57600080fd5b843567ffffffffffffffff81111561065257600080fd5b8501610160818803121561066557600080fd5b93506020850135925061067a60408601610609565b9396929550929360600135925050565b60005b838110156106a557818101518382015260200161068d565b50506000910152565b60208152600082518060208401526106cd81604085016020870161068a565b601f01601f19169190910160400192915050565b60008083601f8401126106f357600080fd5b50813567ffffffffffffffff81111561070b57600080fd5b60208301915083602082850101111561072357600080fd5b9250929050565b6000806000806060858703121561074057600080fd5b843567ffffffffffffffff81111561075757600080fd5b610763878288016106e1565b9095509350610776905060208601610609565b915061078460408601610609565b905092959194509250565b600080600080606085870312156107a557600080fd5b6107ae85610609565b935060208501359250604085013567ffffffffffffffff8111156107d157600080fd5b6107dd878288016106e1565b95989497509550505050565b6000808335601e1984360301811261080057600080fd5b83018035915067ffffffffffffffff82111561081b57600080fd5b60200191503681900382131561072357600080fd5b600181811c9082168061084457607f821691505b60208210810361086457634e487b7160e01b600052602260045260246000fd5b50919050565b634e487b7160e01b600052604160045260246000fd5b601f8211156108ca57600081815260208120601f850160051c810160208610156108a75750805b601f850160051c820191505b818110156108c6578281556001016108b3565b5050505b505050565b67ffffffffffffffff8311156108e7576108e761086a565b6108fb836108f58354610830565b83610880565b6000601f84116001811461092f57600085156109175750838201355b600019600387901b1c1916600186901b17835561030b565b600083815260209020601f19861690835b828110156109605786850135825560209485019460019092019101610940565b508682101561097d5760001960f88860031b161c19848701351681555b505060018560011b0183555050505050565b83858237600084820160008152600085546109a981610830565b600182811680156109c157600181146109d657610a05565b60ff1984168652821515830286019450610a05565b8960005260208060002060005b858110156109fc578154898201529084019082016109e3565b50505082860194505b505050948152602001979650505050505050565b60008251610a2b81846020870161068a565b9190910192915050565b600060208284031215610a4757600080fd5b815180151581146104e357600080fd5b600060018201610a7757634e487b7160e01b600052601160045260246000fd5b506001019056fea2646970667358221220a8104db7ba005277e58f91eb3c05fd239dc2442c56eaf098a5dacb86637a8b1c64736f6c63430008110033",
    "linkReferences": {}
  },
  "methodIdentifiers": {
    "entryPoint()": "b0d691fe",
    "execute(address,uint256,bytes)": "b61d27f6",
    "initialize(bytes,address,address)": "660b88ee",
    "nonce()": "affed0e0",
    "publicKey()": "63ffab31",
    "validateUserOp((address,uint256,bytes,bytes,uint256,uint256,uint256,uint256,uint256,bytes,bytes),bytes32,address,uint256)": "0825d1fc"
  },
  "id": 31
}