{
  "abi": [
    {
      "inputs": [
        {
          "internalType": "uint256",
          "name": "preOpGas",
          "type": "uint256"
        },
        {
          "internalType": "uint256",
          "name": "paid",
          "type": "uint256"
        },
        {
          "internalType": "uint256",
          "name": "deadline",
          "type": "uint256"
        },
        {
          "internalType": "uint256",
          "name": "paymasterDeadline",
          "type": "uint256"
        }
      ],
      "name": "ExecutionResult",
      "type": "error"
    },
    {
      "inputs": [
        {
          "internalType": "uint256",
          "name": "opIndex",
          "type": "uint256"
        },
        {
          "internalType": "address",
          "name": "paymaster",
          "type": "address"
        },
        {
          "internalType": "string",
          "name": "reason",
          "type": "string"
        }
      ],
      "name": "FailedOp",
      "type": "error"
    },
    {
      "inputs": [
        {
          "internalType": "address",
          "name": "sender",
          "type": "address"
        }
      ],
      "name": "SenderAddressResult",
      "type": "error"
    },
    {
      "inputs": [
        {
          "internalType": "address",
          "name": "aggregator",
          "type": "address"
        }
      ],
      "name": "SignatureValidationFailed",
      "type": "error"
    },
    {
      "inputs": [
        {
          "components": [
            {
              "internalType": "uint256",
              "name": "preOpGas",
              "type": "uint256"
            },
            {
              "internalType": "uint256",
              "name": "prefund",
              "type": "uint256"
            },
            {
              "internalType": "uint256",
              "name": "deadline",
              "type": "uint256"
            },
            {
              "internalType": "uint256",
              "name": "paymasterDeadline",
              "type": "uint256"
            },
            {
              "internalType": "bytes",
              "name": "paymasterContext",
              "type": "bytes"
            }
          ],
          "internalType": "struct IEntryPoint.ReturnInfo",
          "name": "returnInfo",
          "type": "tuple"
        },
        {
          "components": [
            {
              "internalType": "uint256",
              "name": "stake",
              "type": "uint256"
            },
            {
              "internalType": "uint256",
              "name": "unstakeDelaySec",
              "type": "uint256"
            }
          ],
          "internalType": "struct IStakeManager.StakeInfo",
          "name": "senderInfo",
          "type": "tuple"
        },
        {
          "components": [
            {
              "internalType": "uint256",
              "name": "stake",
              "type": "uint256"
            },
            {
              "internalType": "uint256",
              "name": "unstakeDelaySec",
              "type": "uint256"
            }
          ],
          "internalType": "struct IStakeManager.StakeInfo",
          "name": "factoryInfo",
          "type": "tuple"
        },
        {
          "components": [
            {
              "internalType": "uint256",
              "name": "stake",
              "type": "uint256"
            },
            {
              "internalType": "uint256",
              "name": "unstakeDelaySec",
              "type": "uint256"
            }
          ],
          "internalType": "struct IStakeManager.StakeInfo",
          "name": "paymasterInfo",
          "type": "tuple"
        }
      ],
      "name": "ValidationResult",
      "type": "error"
    },
    {
      "inputs": [
        {
          "components": [
            {
              "internalType": "uint256",
              "name": "preOpGas",
              "type": "uint256"
            },
            {
              "internalType": "uint256",
              "name": "prefund",
              "type": "uint256"
            },
            {
              "internalType": "uint256",
              "name": "deadline",
              "type": "uint256"
            },
            {
              "internalType": "uint256",
              "name": "paymasterDeadline",
              "type": "uint256"
            },
            {
              "internalType": "bytes",
              "name": "paymasterContext",
              "type": "bytes"
            }
          ],
          "internalType": "struct IEntryPoint.ReturnInfo",
          "name": "returnInfo",
          "type": "tuple"
        },
        {
          "components": [
            {
              "internalType": "uint256",
              "name": "stake",
              "type": "uint256"
            },
            {
              "internalType": "uint256",
              "name": "unstakeDelaySec",
              "type": "uint256"
            }
          ],
          "internalType": "struct IStakeManager.StakeInfo",
          "name": "senderInfo",
          "type": "tuple"
        },
        {
          "components": [
            {
              "internalType": "uint256",
              "name": "stake",
              "type": "uint256"
            },
            {
              "internalType": "uint256",
              "name": "unstakeDelaySec",
              "type": "uint256"
            }
          ],
          "internalType": "struct IStakeManager.StakeInfo",
          "name": "factoryInfo",
          "type": "tuple"
        },
        {
          "components": [
            {
              "internalType": "uint256",
              "name": "stake",
              "type": "uint256"
            },
            {
              "internalType": "uint256",
              "name": "unstakeDelaySec",
              "type": "uint256"
            }
          ],
          "internalType": "struct IStakeManager.StakeInfo",
          "name": "paymasterInfo",
          "type": "tuple"
        },
        {
          "components": [
            {
              "internalType": "address",
              "name": "actualAggregator",
              "type": "address"
            },
            {
              "components": [
                {
                  "internalType": "uint256",
                  "name": "stake",
                  "type": "uint256"
                },
                {
                  "internalType": "uint256",
                  "name": "unstakeDelaySec",
                  "type": "uint256"
                }
              ],
              "internalType": "struct IStakeManager.StakeInfo",
              "name": "stakeInfo",
              "type": "tuple"
            }
          ],
          "internalType": "struct IEntryPoint.AggregatorStakeInfo",
          "name": "aggregatorInfo",
          "type": "tuple"
        }
      ],
      "name": "ValidationResultWithAggregation",
      "type": "error"
    },
    {
      "anonymous": false,
      "inputs": [
        {
          "indexed": true,
          "internalType": "bytes32",
          "name": "userOpHash",
          "type": "bytes32"
        },
        {
          "indexed": true,
          "internalType": "address",
          "name": "sender",
          "type": "address"
        },
        {
          "indexed": false,
          "internalType": "address",
          "name": "factory",
          "type": "address"
        },
        {
          "indexed": false,
          "internalType": "address",
          "name": "paymaster",
          "type": "address"
        }
      ],
      "name": "AccountDeployed",
      "type": "event"
    },
    {
      "anonymous": false,
      "inputs": [
        {
          "indexed": true,
          "internalType": "address",
          "name": "account",
          "type": "address"
        },
        {
          "indexed": false,
          "internalType": "uint256",
          "name": "totalDeposit",
          "type": "uint256"
        }
      ],
      "name": "Deposited",
      "type": "event"
    },
    {
      "anonymous": false,
      "inputs": [
        {
          "indexed": false,
          "internalType": "address",
          "name": "aggregator",
          "type": "address"
        }
      ],
      "name": "SignatureAggregatorChanged",
      "type": "event"
    },
    {
      "anonymous": false,
      "inputs": [
        {
          "indexed": true,
          "internalType": "address",
          "name": "account",
          "type": "address"
        },
        {
          "indexed": false,
          "internalType": "uint256",
          "name": "totalStaked",
          "type": "uint256"
        },
        {
          "indexed": false,
          "internalType": "uint256",
          "name": "withdrawTime",
          "type": "uint256"
        }
      ],
      "name": "StakeLocked",
      "type": "event"
    },
    {
      "anonymous": false,
      "inputs": [
        {
          "indexed": true,
          "internalType": "address",
          "name": "account",
          "type": "address"
        },
        {
          "indexed": false,
          "internalType": "uint256",
          "name": "withdrawTime",
          "type": "uint256"
        }
      ],
      "name": "StakeUnlocked",
      "type": "event"
    },
    {
      "anonymous": false,
      "inputs": [
        {
          "indexed": true,
          "internalType": "address",
          "name": "account",
          "type": "address"
        },
        {
          "indexed": false,
          "internalType": "address",
          "name": "withdrawAddress",
          "type": "address"
        },
        {
          "indexed": false,
          "internalType": "uint256",
          "name": "amount",
          "type": "uint256"
        }
      ],
      "name": "StakeWithdrawn",
      "type": "event"
    },
    {
      "anonymous": false,
      "inputs": [
        {
          "indexed": true,
          "internalType": "bytes32",
          "name": "userOpHash",
          "type": "bytes32"
        },
        {
          "indexed": true,
          "internalType": "address",
          "name": "sender",
          "type": "address"
        },
        {
          "indexed": true,
          "internalType": "address",
          "name": "paymaster",
          "type": "address"
        },
        {
          "indexed": false,
          "internalType": "uint256",
          "name": "nonce",
          "type": "uint256"
        },
        {
          "indexed": false,
          "internalType": "bool",
          "name": "success",
          "type": "bool"
        },
        {
          "indexed": false,
          "internalType": "uint256",
          "name": "actualGasCost",
          "type": "uint256"
        },
        {
          "indexed": false,
          "internalType": "uint256",
          "name": "actualGasUsed",
          "type": "uint256"
        }
      ],
      "name": "UserOperationEvent",
      "type": "event"
    },
    {
      "anonymous": false,
      "inputs": [
        {
          "indexed": true,
          "internalType": "bytes32",
          "name": "userOpHash",
          "type": "bytes32"
        },
        {
          "indexed": true,
          "internalType": "address",
          "name": "sender",
          "type": "address"
        },
        {
          "indexed": false,
          "internalType": "uint256",
          "name": "nonce",
          "type": "uint256"
        },
        {
          "indexed": false,
          "internalType": "bytes",
          "name": "revertReason",
          "type": "bytes"
        }
      ],
      "name": "UserOperationRevertReason",
      "type": "event"
    },
    {
      "anonymous": false,
      "inputs": [
        {
          "indexed": true,
          "internalType": "address",
          "name": "account",
          "type": "address"
        },
        {
          "indexed": false,
          "internalType": "address",
          "name": "withdrawAddress",
          "type": "address"
        },
        {
          "indexed": false,
          "internalType": "uint256",
          "name": "amount",
          "type": "uint256"
        }
      ],
      "name": "Withdrawn",
      "type": "event"
    },
    {
      "inputs": [],
      "name": "SIG_VALIDATION_FAILED",
      "outputs": [
        {
          "internalType": "uint256",
          "name": "",
          "type": "uint256"
        }
      ],
      "stateMutability": "view",
      "type": "function"
    },
    {
      "inputs": [
        {
          "internalType": "uint32",
          "name": "_unstakeDelaySec",
          "type": "uint32"
        }
      ],
      "name": "addStake",
      "outputs": [],
      "stateMutability": "payable",
      "type": "function"
    },
    {
      "inputs": [
        {
          "internalType": "address",
          "name": "account",
          "type": "address"
        }
      ],
      "name": "balanceOf",
      "outputs": [
        {
          "internalType": "uint256",
          "name": "",
          "type": "uint256"
        }
      ],
      "stateMutability": "view",
      "type": "function"
    },
    {
      "inputs": [
        {
          "internalType": "address",
          "name": "account",
          "type": "address"
        }
      ],
      "name": "depositTo",
      "outputs": [],
      "stateMutability": "payable",
      "type": "function"
    },
    {
      "inputs": [
        {
          "internalType": "address",
          "name": "",
          "type": "address"
        }
      ],
      "name": "deposits",
      "outputs": [
        {
          "internalType": "uint112",
          "name": "deposit",
          "type": "uint112"
        },
        {
          "internalType": "bool",
          "name": "staked",
          "type": "bool"
        },
        {
          "internalType": "uint112",
          "name": "stake",
          "type": "uint112"
        },
        {
          "internalType": "uint32",
          "name": "unstakeDelaySec",
          "type": "uint32"
        },
        {
          "internalType": "uint64",
          "name": "withdrawTime",
          "type": "uint64"
        }
      ],
      "stateMutability": "view",
      "type": "function"
    },
    {
      "inputs": [
        {
          "internalType": "address",
          "name": "account",
          "type": "address"
        }
      ],
      "name": "getDepositInfo",
      "outputs": [
        {
          "components": [
            {
              "internalType": "uint112",
              "name": "deposit",
              "type": "uint112"
            },
            {
              "internalType": "bool",
              "name": "staked",
              "type": "bool"
            },
            {
              "internalType": "uint112",
              "name": "stake",
              "type": "uint112"
            },
            {
              "internalType": "uint32",
              "name": "unstakeDelaySec",
              "type": "uint32"
            },
            {
              "internalType": "uint64",
              "name": "withdrawTime",
              "type": "uint64"
            }
          ],
          "internalType": "struct IStakeManager.DepositInfo",
          "name": "info",
          "type": "tuple"
        }
      ],
      "stateMutability": "view",
      "type": "function"
    },
    {
      "inputs": [
        {
          "internalType": "bytes",
          "name": "initCode",
          "type": "bytes"
        }
      ],
      "name": "getSenderAddress",
      "outputs": [],
      "stateMutability": "nonpayable",
      "type": "function"
    },
    {
      "inputs": [
        {
          "components": [
            {
              "internalType": "address",
              "name": "sender",
              "type": "address"
            },
            {
              "internalType": "uint256",
              "name": "nonce",
              "type": "uint256"
            },
            {
              "internalType": "bytes",
              "name": "initCode",
              "type": "bytes"
            },
            {
              "internalType": "bytes",
              "name": "callData",
              "type": "bytes"
            },
            {
              "internalType": "uint256",
              "name": "callGasLimit",
              "type": "uint256"
            },
            {
              "internalType": "uint256",
              "name": "verificationGasLimit",
              "type": "uint256"
            },
            {
              "internalType": "uint256",
              "name": "preVerificationGas",
              "type": "uint256"
            },
            {
              "internalType": "uint256",
              "name": "maxFeePerGas",
              "type": "uint256"
            },
            {
              "internalType": "uint256",
              "name": "maxPriorityFeePerGas",
              "type": "uint256"
            },
            {
              "internalType": "bytes",
              "name": "paymasterAndData",
              "type": "bytes"
            },
            {
              "internalType": "bytes",
              "name": "signature",
              "type": "bytes"
            }
          ],
          "internalType": "struct UserOperation",
          "name": "userOp",
          "type": "tuple"
        }
      ],
      "name": "getUserOpHash",
      "outputs": [
        {
          "internalType": "bytes32",
          "name": "",
          "type": "bytes32"
        }
      ],
      "stateMutability": "view",
      "type": "function"
    },
    {
      "inputs": [
        {
          "components": [
            {
              "components": [
                {
                  "internalType": "address",
                  "name": "sender",
                  "type": "address"
                },
                {
                  "internalType": "uint256",
                  "name": "nonce",
                  "type": "uint256"
                },
                {
                  "internalType": "bytes",
                  "name": "initCode",
                  "type": "bytes"
                },
                {
                  "internalType": "bytes",
                  "name": "callData",
                  "type": "bytes"
                },
                {
                  "internalType": "uint256",
                  "name": "callGasLimit",
                  "type": "uint256"
                },
                {
                  "internalType": "uint256",
                  "name": "verificationGasLimit",
                  "type": "uint256"
                },
                {
                  "internalType": "uint256",
                  "name": "preVerificationGas",
                  "type": "uint256"
                },
                {
                  "internalType": "uint256",
                  "name": "maxFeePerGas",
                  "type": "uint256"
                },
                {
                  "internalType": "uint256",
                  "name": "maxPriorityFeePerGas",
                  "type": "uint256"
                },
                {
                  "internalType": "bytes",
                  "name": "paymasterAndData",
                  "type": "bytes"
                },
                {
                  "internalType": "bytes",
                  "name": "signature",
                  "type": "bytes"
                }
              ],
              "internalType": "struct UserOperation[]",
              "name": "userOps",
              "type": "tuple[]"
            },
            {
              "internalType": "contract IAggregator",
              "name": "aggregator",
              "type": "address"
            },
            {
              "internalType": "bytes",
              "name": "signature",
              "type": "bytes"
            }
          ],
          "internalType": "struct IEntryPoint.UserOpsPerAggregator[]",
          "name": "opsPerAggregator",
          "type": "tuple[]"
        },
        {
          "internalType": "address payable",
          "name": "beneficiary",
          "type": "address"
        }
      ],
      "name": "handleAggregatedOps",
      "outputs": [],
      "stateMutability": "nonpayable",
      "type": "function"
    },
    {
      "inputs": [
        {
          "components": [
            {
              "internalType": "address",
              "name": "sender",
              "type": "address"
            },
            {
              "internalType": "uint256",
              "name": "nonce",
              "type": "uint256"
            },
            {
              "internalType": "bytes",
              "name": "initCode",
              "type": "bytes"
            },
            {
              "internalType": "bytes",
              "name": "callData",
              "type": "bytes"
            },
            {
              "internalType": "uint256",
              "name": "callGasLimit",
              "type": "uint256"
            },
            {
              "internalType": "uint256",
              "name": "verificationGasLimit",
              "type": "uint256"
            },
            {
              "internalType": "uint256",
              "name": "preVerificationGas",
              "type": "uint256"
            },
            {
              "internalType": "uint256",
              "name": "maxFeePerGas",
              "type": "uint256"
            },
            {
              "internalType": "uint256",
              "name": "maxPriorityFeePerGas",
              "type": "uint256"
            },
            {
              "internalType": "bytes",
              "name": "paymasterAndData",
              "type": "bytes"
            },
            {
              "internalType": "bytes",
              "name": "signature",
              "type": "bytes"
            }
          ],
          "internalType": "struct UserOperation[]",
          "name": "ops",
          "type": "tuple[]"
        },
        {
          "internalType": "address payable",
          "name": "beneficiary",
          "type": "address"
        }
      ],
      "name": "handleOps",
      "outputs": [],
      "stateMutability": "nonpayable",
      "type": "function"
    },
    {
      "inputs": [
        {
          "internalType": "bytes",
          "name": "callData",
          "type": "bytes"
        },
        {
          "components": [
            {
              "components": [
                {
                  "internalType": "address",
                  "name": "sender",
                  "type": "address"
                },
                {
                  "internalType": "uint256",
                  "name": "nonce",
                  "type": "uint256"
                },
                {
                  "internalType": "uint256",
                  "name": "callGasLimit",
                  "type": "uint256"
                },
                {
                  "internalType": "uint256",
                  "name": "verificationGasLimit",
                  "type": "uint256"
                },
                {
                  "internalType": "uint256",
                  "name": "preVerificationGas",
                  "type": "uint256"
                },
                {
                  "internalType": "address",
                  "name": "paymaster",
                  "type": "address"
                },
                {
                  "internalType": "uint256",
                  "name": "maxFeePerGas",
                  "type": "uint256"
                },
                {
                  "internalType": "uint256",
                  "name": "maxPriorityFeePerGas",
                  "type": "uint256"
                }
              ],
              "internalType": "struct EntryPoint.MemoryUserOp",
              "name": "mUserOp",
              "type": "tuple"
            },
            {
              "internalType": "bytes32",
              "name": "userOpHash",
              "type": "bytes32"
            },
            {
              "internalType": "uint256",
              "name": "prefund",
              "type": "uint256"
            },
            {
              "internalType": "uint256",
              "name": "contextOffset",
              "type": "uint256"
            },
            {
              "internalType": "uint256",
              "name": "preOpGas",
              "type": "uint256"
            }
          ],
          "internalType": "struct EntryPoint.UserOpInfo",
          "name": "opInfo",
          "type": "tuple"
        },
        {
          "internalType": "bytes",
          "name": "context",
          "type": "bytes"
        }
      ],
      "name": "innerHandleOp",
      "outputs": [
        {
          "internalType": "uint256",
          "name": "actualGasCost",
          "type": "uint256"
        }
      ],
      "stateMutability": "nonpayable",
      "type": "function"
    },
    {
      "inputs": [
        {
          "components": [
            {
              "internalType": "address",
              "name": "sender",
              "type": "address"
            },
            {
              "internalType": "uint256",
              "name": "nonce",
              "type": "uint256"
            },
            {
              "internalType": "bytes",
              "name": "initCode",
              "type": "bytes"
            },
            {
              "internalType": "bytes",
              "name": "callData",
              "type": "bytes"
            },
            {
              "internalType": "uint256",
              "name": "callGasLimit",
              "type": "uint256"
            },
            {
              "internalType": "uint256",
              "name": "verificationGasLimit",
              "type": "uint256"
            },
            {
              "internalType": "uint256",
              "name": "preVerificationGas",
              "type": "uint256"
            },
            {
              "internalType": "uint256",
              "name": "maxFeePerGas",
              "type": "uint256"
            },
            {
              "internalType": "uint256",
              "name": "maxPriorityFeePerGas",
              "type": "uint256"
            },
            {
              "internalType": "bytes",
              "name": "paymasterAndData",
              "type": "bytes"
            },
            {
              "internalType": "bytes",
              "name": "signature",
              "type": "bytes"
            }
          ],
          "internalType": "struct UserOperation",
          "name": "op",
          "type": "tuple"
        }
      ],
      "name": "simulateHandleOp",
      "outputs": [],
      "stateMutability": "nonpayable",
      "type": "function"
    },
    {
      "inputs": [
        {
          "components": [
            {
              "internalType": "address",
              "name": "sender",
              "type": "address"
            },
            {
              "internalType": "uint256",
              "name": "nonce",
              "type": "uint256"
            },
            {
              "internalType": "bytes",
              "name": "initCode",
              "type": "bytes"
            },
            {
              "internalType": "bytes",
              "name": "callData",
              "type": "bytes"
            },
            {
              "internalType": "uint256",
              "name": "callGasLimit",
              "type": "uint256"
            },
            {
              "internalType": "uint256",
              "name": "verificationGasLimit",
              "type": "uint256"
            },
            {
              "internalType": "uint256",
              "name": "preVerificationGas",
              "type": "uint256"
            },
            {
              "internalType": "uint256",
              "name": "maxFeePerGas",
              "type": "uint256"
            },
            {
              "internalType": "uint256",
              "name": "maxPriorityFeePerGas",
              "type": "uint256"
            },
            {
              "internalType": "bytes",
              "name": "paymasterAndData",
              "type": "bytes"
            },
            {
              "internalType": "bytes",
              "name": "signature",
              "type": "bytes"
            }
          ],
          "internalType": "struct UserOperation",
          "name": "userOp",
          "type": "tuple"
        }
      ],
      "name": "simulateValidation",
      "outputs": [],
      "stateMutability": "nonpayable",
      "type": "function"
    },
    {
      "inputs": [],
      "name": "unlockStake",
      "outputs": [],
      "stateMutability": "nonpayable",
      "type": "function"
    },
    {
      "inputs": [
        {
          "internalType": "address payable",
          "name": "withdrawAddress",
          "type": "address"
        }
      ],
      "name": "withdrawStake",
      "outputs": [],
      "stateMutability": "nonpayable",
      "type": "function"
    },
    {
      "inputs": [
        {
          "internalType": "address payable",
          "name": "withdrawAddress",
          "type": "address"
        },
        {
          "internalType": "uint256",
          "name": "withdrawAmount",
          "type": "uint256"
        }
      ],
      "name": "withdrawTo",
      "outputs": [],
      "stateMutability": "nonpayable",
      "type": "function"
    },
    {
      "stateMutability": "payable",
      "type": "receive"
    }
  ],
  "bytecode": {
    "object": "0x60a0604052604051620000129062000050565b604051809103906000f0801580156200002f573d6000803e3d6000fd5b506001600160a01b03166080523480156200004957600080fd5b506200005e565b61021380620036bb83390190565b60805161363a6200008160003960008181610fb9015261272c015261363a6000f3fe6080604052600436106100f75760003560e01c80639b249f691161008a578063c207711611610059578063c20771161461038d578063c23a5cea146103ad578063ee219423146103cd578063fc7e286d146103ed57600080fd5b80639b249f6914610325578063a619353114610345578063b760faf914610365578063bb9fe6bf1461037857600080fd5b80634b1d7cf5116100c65780634b1d7cf5146101925780635287ce12146101b257806370a08231146102d15780638f41ec5a1461031057600080fd5b80630396cb601461010c5780631d7327561461011f5780631fad948c14610152578063205c28781461017257600080fd5b3661010757610105336104a4565b005b600080fd5b61010561011a3660046129fa565b61050b565b34801561012b57600080fd5b5061013f61013a366004612b1e565b610797565b6040519081526020015b60405180910390f35b34801561015e57600080fd5b5061010561016d366004612ca5565b61092b565b34801561017e57600080fd5b5061010561018d366004612cfb565b610a6d565b34801561019e57600080fd5b506101056101ad366004612ca5565b610be9565b3480156101be57600080fd5b506102786101cd366004612d27565b6040805160a081018252600080825260208201819052918101829052606081018290526080810191909152506001600160a01b031660009081526020818152604091829020825160a08101845281546001600160701b038082168352600160701b820460ff16151594830194909452600160781b90049092169282019290925260019091015463ffffffff8116606083015264010000000090046001600160401b0316608082015290565b6040805182516001600160701b03908116825260208085015115159083015283830151169181019190915260608083015163ffffffff16908201526080918201516001600160401b03169181019190915260a001610149565b3480156102dd57600080fd5b5061013f6102ec366004612d27565b6001600160a01b03166000908152602081905260409020546001600160701b031690565b34801561031c57600080fd5b5061013f600181565b34801561033157600080fd5b50610105610340366004612d44565b610fa2565b34801561035157600080fd5b5061013f610360366004612d85565b611058565b610105610373366004612d27565b6104a4565b34801561038457600080fd5b5061010561109a565b34801561039957600080fd5b506101056103a8366004612d85565b6111c6565b3480156103b957600080fd5b506101056103c8366004612d27565b61125b565b3480156103d957600080fd5b506101056103e8366004612d85565b611492565b3480156103f957600080fd5b5061045d610408366004612d27565b600060208190529081526040902080546001909101546001600160701b0380831692600160701b810460ff1692600160781b9091049091169063ffffffff81169064010000000090046001600160401b031685565b604080516001600160701b0396871681529415156020860152929094169183019190915263ffffffff1660608201526001600160401b03909116608082015260a001610149565b6104ae81346115e4565b6001600160a01b03811660008181526020818152604091829020805492516001600160701b03909316835292917f2da466a7b24304f47e87fa2e1e5a81b9831ce54fec19055ce277ca2f39ba42c491015b60405180910390a25050565b33600090815260208190526040902063ffffffff82166105725760405162461bcd60e51b815260206004820152601a60248201527f6d757374207370656369667920756e7374616b652064656c617900000000000060448201526064015b60405180910390fd5b600181015463ffffffff90811690831610156105d05760405162461bcd60e51b815260206004820152601c60248201527f63616e6e6f7420646563726561736520756e7374616b652074696d65000000006044820152606401610569565b80546000906105f0903490600160781b90046001600160701b0316612dd6565b9050600081116106375760405162461bcd60e51b81526020600482015260126024820152711b9bc81cdd185ad9481cdc1958da599a595960721b6044820152606401610569565b6001600160701b03811061067e5760405162461bcd60e51b815260206004820152600e60248201526d7374616b65206f766572666c6f7760901b6044820152606401610569565b6040805160a08101825283546001600160701b0390811682526001602080840182815286841685870190815263ffffffff808b16606088019081526000608089018181523380835296829052908a902098518954955194518916600160781b02600160781b600160e81b0319951515600160701b026effffffffffffffffffffffffffffff19909716919099161794909417929092169590951786555194909201805492516001600160401b0316640100000000026001600160601b0319909316949093169390931717905590517fa5ae833d0bb1dcd632d98a8b70973e8516812898e19bf27b70071ebc8dc52c019061078a908490879091825263ffffffff16602082015260400190565b60405180910390a2505050565b6000805a90503330146107ec5760405162461bcd60e51b815260206004820152601760248201527f4141393220696e7465726e616c2063616c6c206f6e6c790000000000000000006044820152606401610569565b8451600087156108c95760008083600001516001600160a01b031684604001518c8c60405161081c929190612de9565b60006040518083038160008787f1925050503d806000811461085a576040519150601f19603f3d011682016040523d82523d6000602084013e61085f565b606091505b5091509150816108c6578051156108c15783600001516001600160a01b031689602001517f1c4fada7374c0a9ee8841fc38afe82932dc0f8e69012e927f061a8bae611a2018660200151846040516108b8929190612e49565b60405180910390a35b600192505b50505b600087608001515a850301905061091b6000838a8a8a8080601f016020809104026020016040519081016040528093929190818152602001838380828437600092019190915250889250611680915050565b9450505050505b95945050505050565b816000816001600160401b0381111561094657610946612a6f565b60405190808252806020026020018201604052801561097f57816020015b61096c612970565b8152602001906001900390816109645790505b50905060005b828110156109fa5760008282815181106109a1576109a1612e62565b602002602001015190506000806109de848a8a878181106109c4576109c4612e62565b90506020028101906109d69190612e78565b856000611973565b50915091506109ef84848484611b10565b505050600101610985565b506000805b83811015610a5a57610a4e81888884818110610a1d57610a1d612e62565b9050602002810190610a2f9190612e78565b858481518110610a4157610a41612e62565b6020026020010151611c8b565b909101906001016109ff565b50610a658482611d53565b505050505050565b33600090815260208190526040902080546001600160701b0316821115610ad65760405162461bcd60e51b815260206004820152601960248201527f576974686472617720616d6f756e7420746f6f206c61726765000000000000006044820152606401610569565b8054610aec9083906001600160701b0316612e99565b81546001600160701b0319166001600160701b0391909116178155604080516001600160a01b03851681526020810184905233917fd1c19fbcd4551a5edfb66d43d2e337c04837afda3482b42bdf569a8fccdae5fb910160405180910390a26000836001600160a01b03168360405160006040518083038185875af1925050503d8060008114610b98576040519150601f19603f3d011682016040523d82523d6000602084013e610b9d565b606091505b5050905080610be35760405162461bcd60e51b81526020600482015260126024820152716661696c656420746f20776974686472617760701b6044820152606401610569565b50505050565b816000805b82811015610c4357858582818110610c0857610c08612e62565b9050602002810190610c1a9190612eac565b610c249080612ec2565b610c2f915083612dd6565b915080610c3b81612f0b565b915050610bee565b506000816001600160401b03811115610c5e57610c5e612a6f565b604051908082528060200260200182016040528015610c9757816020015b610c84612970565b815260200190600190039081610c7c5790505b5090506000805b84811015610e395736888883818110610cb957610cb9612e62565b9050602002810190610ccb9190612eac565b9050366000610cda8380612ec2565b90925090506000610cf16040850160208601612d27565b90508160005b81811015610d83576000898981518110610d1357610d13612e62565b60200260200101519050600080610d4f8b898987818110610d3657610d36612e62565b9050602002810190610d489190612e78565b8589611973565b5091509150610d6084848484611b10565b8a610d6a81612f0b565b9b50505050508080610d7b90612f0b565b915050610cf7565b506001600160a01b03821615610e21576001600160a01b03821663e3563a4f8585610db160408a018a612f24565b6040518563ffffffff1660e01b8152600401610dd094939291906130cf565b60006040518083038186803b158015610de857600080fd5b505afa925050508015610df9575060015b610e215760405163086a9f7560e41b81526001600160a01b0383166004820152602401610569565b50505050508080610e3190612f0b565b915050610c9e565b50600080915060005b85811015610f595736898983818110610e5d57610e5d612e62565b9050602002810190610e6f9190612eac565b90507f575ff3acadd5ab348fe1855e217e0f3678f8d767d7494c9f9fefbee2e17cca4d610ea26040830160208401612d27565b6040516001600160a01b03909116815260200160405180910390a1366000610eca8380612ec2565b90925090508060005b81811015610f4157610f1588858584818110610ef157610ef1612e62565b9050602002810190610f039190612e78565b8b8b81518110610a4157610a41612e62565b610f1f9088612dd6565b965087610f2b81612f0b565b9850508080610f3990612f0b565b915050610ed3565b50505050508080610f5190612f0b565b915050610e42565b50604051600081527f575ff3acadd5ab348fe1855e217e0f3678f8d767d7494c9f9fefbee2e17cca4d9060200160405180910390a1610f988682611d53565b5050505050505050565b604051632b870d1b60e11b81526001600160a01b037f0000000000000000000000000000000000000000000000000000000000000000169063570e1a3690610ff0908590859060040161314c565b6020604051808303816000875af115801561100f573d6000803e3d6000fd5b505050506040513d601f19601f820116820180604052508101906110339190613160565b604051633653dc0360e11b81526001600160a01b039091166004820152602401610569565b600061106382611e51565b6040805160208101929092523090820152466060820152608001604051602081830303815290604052805190602001209050919050565b3360009081526020819052604081206001810154909163ffffffff90911690036110f35760405162461bcd60e51b815260206004820152600a6024820152691b9bdd081cdd185ad95960b21b6044820152606401610569565b8054600160701b900460ff1661113f5760405162461bcd60e51b8152602060048201526011602482015270616c726561647920756e7374616b696e6760781b6044820152606401610569565b60018101546000906111579063ffffffff164261317d565b6001830180546bffffffffffffffff0000000019166401000000006001600160401b03841690810291909117909155835460ff60701b1916845560405190815290915033907ffa9b3c14cc825c412c9ed81b3ba365a5b459439403f18829e572ed53a4180f0a906020016104ff565b6111ce612970565b6000806111df600085856001611973565b5091509150600182036111f157600091505b600181036111fd575060005b61120a6000848484611b10565b61121343600052565b600061122160008686611c8b565b6080850151604051635187e98f60e11b81526004810191909152602481018290526044810185905260648101849052909150608401610569565b3360009081526020819052604090208054600160781b90046001600160701b0316806112c05760405162461bcd60e51b81526020600482015260146024820152734e6f207374616b6520746f20776974686472617760601b6044820152606401610569565b600182015464010000000090046001600160401b03166113225760405162461bcd60e51b815260206004820152601d60248201527f6d7573742063616c6c20756e6c6f636b5374616b6528292066697273740000006044820152606401610569565b6001820154426401000000009091046001600160401b031611156113885760405162461bcd60e51b815260206004820152601b60248201527f5374616b65207769746864726177616c206973206e6f742064756500000000006044820152606401610569565b6001820180546001600160601b03191690558154600160781b600160e81b0319168255604080516001600160a01b03851681526020810183905233917fb7c918e0e249f999e965cafeb6c664271b3f4317d296461500e71da39f0cbda3910160405180910390a26000836001600160a01b03168260405160006040518083038185875af1925050503d806000811461143c576040519150601f19603f3d011682016040523d82523d6000602084013e611441565b606091505b5050905080610be35760405162461bcd60e51b815260206004820152601860248201527f6661696c656420746f207769746864726177207374616b6500000000000000006044820152606401610569565b61149a612970565b60008060006114ad600086866001611973565b92509250925060006114c6856000015160a00151611e6a565b8551519091506000906114d890611e6a565b90503660006114ea60408a018a612f24565b90925090506000601482101561150157600061151c565b61150f6014600084866131a4565b611518916131ce565b60601c5b9050600061152982611e6a565b905060006040518060a001604052808c6080015181526020018c6040015181526020018b81526020018a81526020016115638d6060015190565b905290506001600160a01b038816156115c357600060405180604001604052808a6001600160a01b0316815260200161159b8b611e6a565b81525090508187848a84604051631945b05b60e31b815260040161056995949392919061323b565b80868389604051633dd956e960e01b815260040161056994939291906132bb565b6001600160a01b038216600090815260208190526040812080549091906116159084906001600160701b0316612dd6565b90506001600160701b038111156116615760405162461bcd60e51b815260206004820152601060248201526f6465706f736974206f766572666c6f7760801b6044820152606401610569565b81546001600160701b0319166001600160701b03919091161790555050565b6000805a85519091506000908161169682611eb9565b60a08301519091506001600160a01b0381166116b5578251935061184b565b80935060008851111561184b57868202955060028a60028111156116db576116db61330e565b1461174d57606083015160405163a9a2340960e01b81526001600160a01b0383169163a9a2340991611715908e908d908c90600401613324565b600060405180830381600088803b15801561172f57600080fd5b5087f1158015611743573d6000803e3d6000fd5b505050505061184b565b606083015160405163a9a2340960e01b81526001600160a01b0383169163a9a2340991611782908e908d908c90600401613324565b600060405180830381600088803b15801561179c57600080fd5b5087f1935050505080156117ae575060015b61184b576117ba61336b565b806308c379a0036117f757506117ce613387565b806117d957506117f9565b8b828260405162fa072b60e01b815260040161056993929190613410565b505b60405162fa072b60e01b8152600481018c90526001600160a01b0382166024820152606060448201526011606482015270104d4c081c1bdcdd13dc081c995d995c9d607a1b608482015260a401610569565b5a850387019650818702955085896040015110156118c15760405162fa072b60e01b8152600481018c90526001600160a01b038216602482015260606044820152601f60648201527f4135312070726566756e642062656c6f772061637475616c476173436f737400608482015260a401610569565b60408901518690036118d385826115e4565b6000808c60028111156118e8576118e861330e565b1490508460a001516001600160a01b031685600001516001600160a01b03168c602001517f49628fd1471006c1482da88028e9ce4dbb080b815c9b0344d39e5a8e6ec1419f8860200151858d8f60405161195b949392919093845291151560208401526040830152606082015260800190565b60405180910390a45050505050505095945050505050565b6000806000805a86519091506119898882611ee9565b61199288611058565b6020880152604081015160608201516080830151171760e089013517610100890135176effffffffffffffffffffffffffffff811115611a145760405162461bcd60e51b815260206004820152601860248201527f41413934206761732076616c756573206f766572666c6f7700000000000000006044820152606401610569565b600080611a2084611fe2565b9050611a2f8c8c8c8c85612030565b995096509150611a3e43600052565b60a08401516060906001600160a01b031615611a6657611a618d8d8d85876123fd565b985090505b60005a87039050808d60a001351015611ae0578d8660a0015160405162fa072b60e01b81526004016105699291909182526001600160a01b03166020820152606060408201819052601e908201527f41413430206f76657220766572696669636174696f6e4761734c696d69740000608082015260a00190565b60408c018390528160608d015260c08d01355a8803018c6080018181525050505050505050509450945094915050565b8115801590611b1e57504282105b15611bbd5760018203611b785760405162fa072b60e01b8152600481018590526000602482015260606044820152601460648201527320a0991a1039b4b3b730ba3ab9329032b93937b960611b608482015260a401610569565b60405162fa072b60e01b8152600481018590526000602482015260606044820152600c60648201526b10504c8c88195e1c1a5c995960a21b608482015260a401610569565b8015801590611bcb57504281105b15610be357825160a001516000198201611c345760405162fa072b60e01b8152600481018690526001600160a01b038216602482015260606044820152601460648201527320a0999a1039b4b3b730ba3ab9329032b93937b960611b608482015260a401610569565b60405162fa072b60e01b8152600481018690526001600160a01b038216602482015260606044820152601660648201527510504ccc881c185e5b585cdd195c88195e1c1a5c995960521b608482015260a401610569565b6000805a90506000611c9e846060015190565b905030631d732756611cb36060880188612f24565b87856040518563ffffffff1660e01b8152600401611cd4949392919061343a565b6020604051808303816000875af1925050508015611d0f575060408051601f3d908101601f19168201909252611d0c918101906134ed565b60015b611d4757600084608001515a611d259085612e99565b611d2f9190612dd6565b9050611d3f876002878585611680565b935050611d4a565b92505b50509392505050565b6001600160a01b038216611da95760405162461bcd60e51b815260206004820152601860248201527f4141393020696e76616c69642062656e656669636961727900000000000000006044820152606401610569565b6000826001600160a01b03168260405160006040518083038185875af1925050503d8060008114611df6576040519150601f19603f3d011682016040523d82523d6000602084013e611dfb565b606091505b5050905080611e4c5760405162461bcd60e51b815260206004820152601f60248201527f41413931206661696c65642073656e6420746f2062656e6566696369617279006044820152606401610569565b505050565b6000611e5c82612644565b805190602001209050919050565b604080518082018252600080825260208083018281526001600160a01b03959095168252819052919091208054600160781b90046001600160701b031682526001015463ffffffff1690915290565b60c081015160e082015160009190808203611ed5575092915050565b611ee182488301612683565b949350505050565b611ef66020830183612d27565b6001600160a01b0316815260208083013590820152608080830135604083015260a0830135606083015260c0808401359183019190915260e0808401359183019190915261010083013590820152366000611f55610120850185612f24565b90925090508015611fd5576014811015611fb15760405162461bcd60e51b815260206004820152601d60248201527f4141393320696e76616c6964207061796d6173746572416e64446174610000006044820152606401610569565b611fbf6014600083856131a4565b611fc8916131ce565b60601c60a0840152610be3565b600060a084015250505050565b60a081015160009081906001600160a01b0316612000576001612003565b60035b60ff169050600083608001518285606001510285604001510101905061202884611eb9565b029392505050565b6000806000805a87518051919250906120568b8a61205160408e018e612f24565b61269d565b6000196001600160a01b038916016121cc5761207143600052565b806001600160a01b03163b6000036120d95760405162fa072b60e01b8152600060048201819052602482015260606044820152601960648201527f41413230206163636f756e74206e6f74206465706c6f79656400000000000000608482015260a401610569565b60a08201516001600160a01b031615801590612101575060a08201516001600160a01b03163b155b1561215c5760405162fa072b60e01b8152600060048201819052602482015260606044820152601b60648201527f41413330207061796d6173746572206e6f74206465706c6f7965640000000000608482015260a401610569565b806001600160a01b0316633ad59dbc6040518163ffffffff1660e01b8152600401602060405180830381865afa9250505080156121b6575060408051601f3d908101601f191682019092526121b391810190613160565b60015b6121c657600094508497506121cc565b97508794505b60a08201516000906001600160a01b03811661221a576001600160a01b0383166000908152602081905260409020546001600160701b031689811161221357808a03612216565b60005b9250505b826001600160a01b0316630825d1fc85606001518e8e602001518e876040518663ffffffff1660e01b81526004016122559493929190613506565b60206040518083038160008887f193505050508015612291575060408051601f3d908101601f1916820190925261228e918101906134ed565b60015b61232c5761229d61336b565b806308c379a0036122db57506122b1613387565b806122bc57506122dd565b8d60008260405162fa072b60e01b815260040161056993929190613410565b505b60405162fa072b60e01b8152600481018e9052600060248201526060604482015260166064820152754141323320726576657274656420286f72204f4f472960501b608482015260a401610569565b95506001600160a01b0381166123e8576001600160a01b038316600090815260208190526040902080546001600160701b0316808b11156123cb578e600060405162fa072b60e01b81526004016105699291909182526001600160a01b031660208201526060604082018190526017908201527f41413231206469646e2774207061792070726566756e64000000000000000000608082015260a00190565b81546001600160701b031916908b90036001600160701b03161790555b5a850397505050505050955095509592505050565b825160608181015190916000918481116124595760405162461bcd60e51b815260206004820152601f60248201527f4141343120746f6f206c6974746c6520766572696669636174696f6e476173006044820152606401610569565b60a08201516001600160a01b038116600090815260208190526040902080548784039291906001600160701b0316898110156124ed5760405162fa072b60e01b8152600481018e90526001600160a01b038416602482015260606044820152601e60648201527f41413331207061796d6173746572206465706f73697420746f6f206c6f770000608482015260a401610569565b8981038260000160006101000a8154816001600160701b0302191690836001600160701b03160217905550826001600160a01b031663f465c77e858e8e602001518e6040518563ffffffff1660e01b815260040161254d9392919061353e565b60006040518083038160008887f19350505050801561258e57506040513d6000823e601f3d908101601f1916820160405261258b9190810190613563565b60015b6126305761259a61336b565b806308c379a0036125d757506125ae613387565b806125b957506125d9565b8d848260405162fa072b60e01b815260040161056993929190613410565b505b60405162fa072b60e01b8152600481018e90526001600160a01b03841660248201526060604482015260166064820152754141333320726576657274656420286f72204f4f472960501b608482015260a401610569565b909e909d509b505050505050505050505050565b6060366000612657610140850185612f24565b915091508360208184030360405194506020810185016040528085528082602087013750505050919050565b60008183106126925781612694565b825b90505b92915050565b8015610be3578251516001600160a01b0381163b1561270c5760405162fa072b60e01b8152600481018690526000602482015260606044820152601f60648201527f414131302073656e64657220616c726561647920636f6e737472756374656400608482015260a401610569565b835160600151604051632b870d1b60e11b81526000916001600160a01b037f0000000000000000000000000000000000000000000000000000000000000000169163570e1a369190612764908890889060040161314c565b60206040518083038160008887f1158015612783573d6000803e3d6000fd5b50505050506040513d601f19601f820116820180604052508101906127a89190613160565b90506001600160a01b03811661280e5760405162fa072b60e01b8152600481018790526000602482015260606044820152601b60648201527f4141313320696e6974436f6465206661696c6564206f72204f4f470000000000608482015260a401610569565b816001600160a01b0316816001600160a01b03161461287d5760405162fa072b60e01b8152600481018790526000602482015260606044820152602060648201527f4141313420696e6974436f6465206d7573742072657475726e2073656e646572608482015260a401610569565b806001600160a01b03163b6000036128e55760405162fa072b60e01b8152600481018790526000602482015260606044820152602060648201527f4141313520696e6974436f6465206d757374206372656174652073656e646572608482015260a401610569565b60006128f460148286886131a4565b6128fd916131ce565b60601c9050826001600160a01b031686602001517fd51a9c61267aa6196961883ecf5ff2da6619c37dac0fa92122513fb32c032d2d83896000015160a0015160405161295f9291906001600160a01b0392831681529116602082015260400190565b60405180910390a350505050505050565b6040518060a001604052806129d560405180610100016040528060006001600160a01b031681526020016000815260200160008152602001600081526020016000815260200160006001600160a01b0316815260200160008152602001600081525090565b8152602001600080191681526020016000815260200160008152602001600081525090565b600060208284031215612a0c57600080fd5b813563ffffffff81168114612a2057600080fd5b9392505050565b60008083601f840112612a3957600080fd5b5081356001600160401b03811115612a5057600080fd5b602083019150836020828501011115612a6857600080fd5b9250929050565b634e487b7160e01b600052604160045260246000fd5b60a081018181106001600160401b0382111715612aa457612aa4612a6f565b60405250565b61010081018181106001600160401b0382111715612aa457612aa4612a6f565b601f8201601f191681016001600160401b0381118282101715612aef57612aef612a6f565b6040525050565b6001600160a01b0381168114612b0b57600080fd5b50565b8035612b1981612af6565b919050565b60008060008060008587036101c0811215612b3857600080fd5b86356001600160401b0380821115612b4f57600080fd5b612b5b8a838b01612a27565b9098509650601f199290920191610180915081831215612b7a57600080fd5b604051612b8681612a85565b61010080851215612b9657600080fd5b6040519450612ba485612aaa565b612bb060208c01612b0e565b855260408b0135602086015260608b0135604086015260808b0135606086015260a08b01356080860152612be660c08c01612b0e565b60a086015260e08b81013560c0870152908b0135908501529283526101208901356020840152610140890135604084015261016089013560608401528189013560808401529194506101a08801359180831115612c4257600080fd5b5050612c5088828901612a27565b969995985093965092949392505050565b60008083601f840112612c7357600080fd5b5081356001600160401b03811115612c8a57600080fd5b6020830191508360208260051b8501011115612a6857600080fd5b600080600060408486031215612cba57600080fd5b83356001600160401b03811115612cd057600080fd5b612cdc86828701612c61565b9094509250506020840135612cf081612af6565b809150509250925092565b60008060408385031215612d0e57600080fd5b8235612d1981612af6565b946020939093013593505050565b600060208284031215612d3957600080fd5b8135612a2081612af6565b60008060208385031215612d5757600080fd5b82356001600160401b03811115612d6d57600080fd5b612d7985828601612a27565b90969095509350505050565b600060208284031215612d9757600080fd5b81356001600160401b03811115612dad57600080fd5b82016101608185031215612a2057600080fd5b634e487b7160e01b600052601160045260246000fd5b8082018082111561269757612697612dc0565b8183823760009101908152919050565b60005b83811015612e14578181015183820152602001612dfc565b50506000910152565b60008151808452612e35816020860160208601612df9565b601f01601f19169290920160200192915050565b828152604060208201526000611ee16040830184612e1d565b634e487b7160e01b600052603260045260246000fd5b6000823561015e19833603018112612e8f57600080fd5b9190910192915050565b8181038181111561269757612697612dc0565b60008235605e19833603018112612e8f57600080fd5b6000808335601e19843603018112612ed957600080fd5b8301803591506001600160401b03821115612ef357600080fd5b6020019150600581901b3603821315612a6857600080fd5b600060018201612f1d57612f1d612dc0565b5060010190565b6000808335601e19843603018112612f3b57600080fd5b8301803591506001600160401b03821115612f5557600080fd5b602001915036819003821315612a6857600080fd5b6000808335601e19843603018112612f8157600080fd5b83016020810192503590506001600160401b03811115612fa057600080fd5b803603821315612a6857600080fd5b81835281816020850137506000828201602090810191909152601f909101601f19169091010190565b6000610160612ff784612fea85612b0e565b6001600160a01b03169052565b6020830135602085015261300e6040840184612f6a565b8260408701526130218387018284612faf565b925050506130326060840184612f6a565b8583036060870152613045838284612faf565b925050506080830135608085015260a083013560a085015260c083013560c085015260e083013560e085015261010080840135818601525061012061308c81850185612f6a565b8684038388015261309e848284612faf565b93505050506101406130b281850185612f6a565b868403838801526130c4848284612faf565b979650505050505050565b6040808252810184905260006060600586901b830181019083018783805b8981101561313557868503605f190184528235368c900361015e19018112613113578283fd5b61311f868d8301612fd8565b95505060209384019392909201916001016130ed565b5050505082810360208401526130c4818587612faf565b602081526000611ee1602083018486612faf565b60006020828403121561317257600080fd5b8151612a2081612af6565b6001600160401b0381811683821601908082111561319d5761319d612dc0565b5092915050565b600080858511156131b457600080fd5b838611156131c157600080fd5b5050820193919092039150565b6001600160601b031981358181169160148510156131f65780818660140360031b1b83161692505b505092915050565b805182526020810151602083015260408101516040830152606081015160608301526000608082015160a06080850152611ee160a0850182612e1d565b600061014080835261324f818401896131fe565b915050613269602083018780518252602090810151910152565b845160608301526020948501516080830152835160a08301529284015160c082015281516001600160a01b031660e0820152908301518051610100830152909201516101209092019190915292915050565b60e0815260006132ce60e08301876131fe565b90506132e7602083018680518252602090810151910152565b8351606083015260208401516080830152825160a0830152602083015160c0830152610922565b634e487b7160e01b600052602160045260246000fd5b60006003851061334457634e487b7160e01b600052602160045260246000fd5b8482526060602083015261335b6060830185612e1d565b9050826040830152949350505050565b600060033d11156133845760046000803e5060005160e01c5b90565b600060443d10156133955790565b6040516003193d81016004833e81513d6001600160401b0381602484011181841117156133c457505050505090565b82850191508151818111156133dc5750505050505090565b843d87010160208285010111156133f65750505050505090565b61340560208286010187612aca565b509095945050505050565b8381526001600160a01b038316602082015260606040820181905260009061092290830184612e1d565b60006101c080835261344f8184018789612faf565b9050845160018060a01b03808251166020860152602082015160408601526040820151606086015260608201516080860152608082015160a08601528060a08301511660c08601525060c081015160e085015260e08101516101008501525060208501516101208401526040850151610140840152606085015161016084015260808501516101808401528281036101a08401526130c48185612e1d565b6000602082840312156134ff57600080fd5b5051919050565b6080815260006135196080830187612fd8565b6020830195909552506001600160a01b03929092166040830152606090910152919050565b6060815260006135516060830186612fd8565b60208301949094525060400152919050565b6000806040838503121561357657600080fd5b82516001600160401b038082111561358d57600080fd5b818501915085601f8301126135a157600080fd5b8151818111156135b3576135b3612a6f565b60405191506135cc601f8201601f191660200183612aca565b8082528660208285010111156135e157600080fd5b6135f2816020840160208601612df9565b5060209490940151939593945050505056fea264697066735822122086782d88b566636c63721368d690c8608478eb7cbdd88ea0ef2998f0c6292efd64736f6c63430008110033608060405234801561001057600080fd5b506101f3806100206000396000f3fe608060405234801561001057600080fd5b506004361061002b5760003560e01c8063570e1a3614610030575b600080fd5b61004361003e3660046100ec565b61005f565b6040516001600160a01b03909116815260200160405180910390f35b60008061006f601482858761015e565b61007891610188565b60601c9050600061008c846014818861015e565b8080601f016020809104026020016040519081016040528093929190818152602001838380828437600092018290525084519495509360209350849250905082850182875af190506000519350806100e357600093505b50505092915050565b600080602083850312156100ff57600080fd5b823567ffffffffffffffff8082111561011757600080fd5b818501915085601f83011261012b57600080fd5b81358181111561013a57600080fd5b86602082850101111561014c57600080fd5b60209290920196919550909350505050565b6000808585111561016e57600080fd5b8386111561017b57600080fd5b5050820193919092039150565b6bffffffffffffffffffffffff1981358181169160148510156101b55780818660140360031b1b83161692505b50509291505056fea26469706673582212203231350d6c6e5f8a56fbec74ce4acf799633fd627aada106eb30a40636cb776364736f6c63430008110033",
    "linkReferences": {}
  },
  "methodIdentifiers": {
    "SIG_VALIDATION_FAILED()": "8f41ec5a",
    "addStake(uint32)": "0396cb60",
    "balanceOf(address)": "70a08231",
    "depositTo(address)": "b760faf9",
    "deposits(address)": "fc7e286d",
    "getDepositInfo(address)": "5287ce12",
    "getSenderAddress(bytes)": "9b249f69",
    "getUserOpHash((address,uint256,bytes,bytes,uint256,uint256,uint256,uint256,uint256,bytes,bytes))": "a6193531",
    "handleAggregatedOps(((address,uint256,bytes,bytes,uint256,uint256,uint256,uint256,uint256,bytes,bytes)[],address,bytes)[],address)": "4b1d7cf5",
    "handleOps((address,uint256,bytes,bytes,uint256,uint256,uint256,uint256,uint256,bytes,bytes)[],address)": "1fad948c",
    "innerHandleOp(bytes,((address,uint256,uint256,uint256,uint256,address,uint256,uint256),bytes32,uint256,uint256,uint256),bytes)": "1d732756",
    "simulateHandleOp((address,uint256,bytes,bytes,uint256,uint256,uint256,uint256,uint256,bytes,bytes))": "c2077116",
    "simulateValidation((address,uint256,bytes,bytes,uint256,uint256,uint256,uint256,uint256,bytes,bytes))": "ee219423",
    "unlockStake()": "bb9fe6bf",
    "withdrawStake(address)": "c23a5cea",
    "withdrawTo(address,uint256)": "205c2878"
  },
  "id": 0
}